:0600A400752100752238F1
:2000AD00AF828F061FEE6011E5A104F5A1E5A104F5A1E5A104F5A180E922AE82AF838E0410
:2000CD008F051EBEFF011FEC4D60227582FAC007C0061200AD7582FA1200AD7582FA1200D9
:2000ED00AD7582FA1200ADD006D00780D122C2EA75E20075EAC07E007F008EEC8FED7E40A3
:20010D007F008EEE8FEF75DC0275D21275E30075D10875E22943D10175D8FF75E103D2EA11
:20012D0022AD82AE83AFF0AA11AB12AC13A914890019E860208A828B838CF0120D7CF8A3C7
:20014D00AA82AB838D828E838FF0E8120D61A3AD82AE8380DA2253DCFE7408B5DB028003F4
:20016D00020512900006E0F524900007E060037524407F00900001E0F523900000E0FE544D
:20018D006060030204BF7406B523028003020381900003E0FEBE014674EE25244004AE2436
:2001AD0080027E128E077C9C7D0D7E8079007A007B008F11A8111511E8700302051C8C8272
:2001CD008D838EF0120D7CF8A3AC82AD8389828A838BF0E8120D61A3A982AA8380D6900014
:2001ED0003E0FEBE024674E025244004AE2480027E208E077CAE7D0D7E8079007A007B0083
:20020D008F12A8121512E8700302051C8C828D838EF0120D7CF8A3AC82AD8389828A838BFE
:20022D00F0E8120D61A3A982AA8380D6900003E0FEBE03028003020512900002E07046749C
:20024D00FC25244004AE2480027E048E077CCE7D0D7E8079007A007B008F13A8131513E8F0
:20026D00700302051C8C828D838EF0120D7CF8A3AC82AD8389828A838BF0E8120D61A3A964
:20028D0082AA8380D6900002E0FEBE014674F625244004AE2480027E0A8E077CD27D0D7E19
:2002AD008079007A007B008F14A8141514E8700302051C8C828D838EF0120D7CF8A3AC823D
:2002CD00AD8389828A838BF0E8120D61A3A982AA8380D6900002E0FEBE024674F82524402A
:2002ED0004AE2480027E088E077CDC7D0D7E8079007A007B008F15A8151515E87003020543
:20030D001C8C828D838EF0120D7CF8A3AC82AD8389828A838BF0E8120D61A3A982AA83800E
:20032D00D6900002E0FEBEEE02800302051274EE25244004AE2480027E128E077CE47D0DCE
:20034D007E8079007A007B008F16A8161516E8700302051C8C828D838EF0120D7CF8A3AC9A
:20036D0082AD8389828A838BF0E8120D61A3A982AA8380D67405B52309900002E0F524028B
:20038D00051C7408B52319900000E525F0E52460067D017E0080047D007E008D0702051C97
:2003AD007409B52309900002E0F52502051C740AB52318900000E4F0E52460067D017E00E6
:2003CD0080047D007E008D0702051CE523600302045A900000E0FEBE8226900004E0FEBE0B
:2003ED00811EADD25305037E00BD0309BE00067D017E0080047D007E00900000EDF08033D1
:20040D00900000E0FEBE8226900004E0FEBE011EADD253050C7E00BD0C09BE00067D017EB9
:20042D000080047D007E00900000EDF08005900000E4F0900001E4F0E52424FD50067D0276
:20044D007E008004AD247E008D0702051C900000E0FEBE02267403B52321900004E0FEBE93
:20046D00810643D20302051C900004E0FEBE0102800302051243D20C02051C900000E0FE2C
:20048D00BE020280030205127401B523028003020512900004E0FEBE810B74BC55D24402AD
:2004AD00F5D202051C900004E0FEBE015853D273805D900000E0FEBEC04B900004E0FEBEE0
:2004CD00044374D825244004AE2480027E288E077CF67D0D7E8079007A007B008F17A81793
:2004ED001517E8602A8C828D838EF0120D7CF8A3AC82AD8389828A838BF0E8120D61A3A9DA
:20050D0082AA8380D975230075240075DC03228FDD75DCC02285DB26900040E0FE9000417B
:20052D00E0FD900042E0F52720DE012274FF2526400122EE70058D82020BC1BE010280033D
:20054D000205F8E51030E2030205F8ED24E1403CED24E25004E52770338D027B00E52760AC
:20056D000678017900800478007900E82AF8E93BF9E828F8E933F9740428F8E439F9AC263D
:20058D007F00E8B50406E9B50702800443D2022274042AFCE43BFFE52760067A017B008020
:2005AD00047A007B00EA2CFCEB3FFFEC2440FCEF3400FF8C118F1275130075148075150033
:2005CD007516008D1785271890004475F000C005120BE5D005E52760067C017F0080047CD8
:2005ED00007F00EC2DF5D353D2FD22BE021CE51030E217AD267F00ED24FFF511EF34FFF5D1
:20060D001290004175F000020CD2BEFF17C2AF75E20675D8FF9001F41200C785218285228A
:20062D00830200492220D903020B91E5D9543FFFBF210643D202020B8EBF010280030207ED
:20064D007B85DB28900040E0FD900041E0F529900042E0F52A20DE03020B8E74FF252840A1
:20066D0003020B8EED7009852982120BC1020B8EBD01028003020737E51030E203020737F3
:20068D00E52924E14042E52924E25004E52A7038A9297A00E52A60087540017541008005E5
:2006AD00E4F540F541E54029F8E5413AFEE828F8EE33FE740428F8E43EFEAB287C00E8B56F
:2006CD000306EEB50402800643D202020B8E740429FCE43AFEE52A60067A017B0080047A01
:2006ED00007B00EA2CFCEB3EFEEC2440FCEE3400FE8C118E127513007514807515007516EA
:20070D0000852917852A1890004475F000120BE5E52A60067C017E0080047C007E00AE2940
:20072D00EC2EF5D353D2FD020B8EBD021FE51030E21AAC287E00EC24FFF511EE34FFF5127F
:20074D0090004175F000120CD2020B8EBDFF028003020B8EC2AF75E20675D8FF9001F4123E
:20076D0000C7852182852283120049020B8EBF30028003020B7553DCFE7408B5DB028003A9
:20078D00020B63900006E0F524900007E060037524407E00900001E0F523900000E0FD54D2
:2007AD00606003020B097406B5230280030209CB900003E0FDBD014D74EE25244004AD246B
:2007CD0080027D128D06752B9C752C0D752D80780079007A008E058D041DEC7003020B6ED6
:2007ED00852B82852C83852DF0120D7CFCA385822B85832C888289838AF0EC120D61A3A8FD
:20080D0082A98380D2900003E0FDBD024D74E025244004AD2480027D208D06752EAE752FF6
:20082D000D753080780079007A008E058D041DEC7003020B6E852E82852F838530F0120DC3
:20084D007CFCA385822E85832F888289838AF0EC120D61A3A882A98380D2900003E0FDBD90
:20086D0003028003020B63900002E0704D74FC25244004AD2480027D048D067531CE7532C5
:20088D000D753380780079007A008E058D041DEC7003020B6E8531828532838533F0120D57
:2008AD007CFCA3858231858332888289838AF0EC120D61A3A882A98380D2900002E0FDBD2B
:2008CD00014D74F625244004AD2480027D0A8D067534D275350D753680780079007A008E03
:2008ED00058D041DEC7003020B6E8534828535838536F0120D7CFCA385823485833588827F
:20090D0089838AF0EC120D61A3A882A98380D2900002E0FDBD024D74F825244004AD2480C8
:20092D00027D088D067537DC75380D753980780079007A008E058D041DEC7003020B6E8515
:20094D0037828538838539F0120D7CFCA3858237858338888289838AF0EC120D61A3A88262
:20096D00A98380D2900002E0FDBDEE028003020B6374EE25244004AD2480027D128D067504
:20098D003AE4753B0D753C80780079007A008E058D041DEC7003020B6E853A82853B8385AF
:2009AD003CF0120D7CFCA385823A85833B888289838AF0EC120D61A3A882A98380D2740580
:2009CD00B52309900002E0F524020B6E7408B52319900000E525F0E52460067C017D008043
:2009ED00047C007D008C06020B6E7409B52309900002E0F525020B6E740AB523189000007D
:200A0D00E4F0E52460067C017D0080047C007D008C06020B6EE5236003020AA4900000E077
:200A2D00FDBD8226900004E0FDBD811EACD25304037D00BC0309BD00067C017D0080047CA0
:200A4D00007D00900000ECF08033900000E0FDBD8226900004E0FDBD011EACD253040C7D70
:200A6D0000BC0C09BD00067C017D0080047C007D00900000ECF08005900000E4F090000178
:200A8D00E4F0E52424FD50067C027D008004AC247D008C06020B6E900000E0FDBD02267456
:200AAD0003B52321900004E0FDBD810643D203020B6E900004E0FDBD01028003020B63437E
:200ACD00D20C020B6E900000E0FDBD02028003020B637401B523028003020B63900004E0D9
:200AED00FDBD810B74BC55D24402F5D2020B6E900004E0FDBD015F53D2738065900000E049
:200B0D00FDBDC052900004E0FDBD044A74D825244004AD2480027D288D06753DF6753E0DB4
:200B2D00753F80780079007A008E058D041DEC6030853D82853E83853FF0120D7CFCA3854F
:200B4D00823D85833E888289838AF0EC120D61A3A882A98380D575230075240075DC038034
:200B6D00208EDD75DCC08019BF20107405B523038524E375DD0075DC028006EF700375DC86
:200B8D0002C2D92230D81675DC0275D21275E30075250075240075230075D8FF2275D8FFE2
:010BAD002225
:200D9C0012010002FFFFFF40A02009420001010200010902200001010080FA09040000021F
:200DBC00FFFFFF000705810240000007050102400000040309040A0354006500730074003B
:200DDC00080344006500760012034D005300460054003100300030000101280000000001C2
:200DFC0004000100000000000000000157494E5553420000000000000000000000000000F9
:020E1C000000D4
:200BAE0053906E5393BF53920E53B0F35396F375FB0222E582FF540124FF92B3EF0354016E
:200BCE0024FF92B2EF30E2067D607E0080047D027E008DFA8F102285821985831A85F01BA3
:200BEE007C00C3EC9517506CEC2514F9E43515FAAB16EC2511F8E43512FEAF1388828E832D
:200C0E008FF0120D7CF51DEC2519F8E4351AFDAE1B88828D838EF0120D7CF51C7D00780145
:200C2E007E00BE08005020E8551C24FF9294E8551D24FF9295309603E842058807EF2FF80F
:200C4E00D297C2970E80DB89828A838BF0ED120D610C808EE518606BEC2514FDE43515FE2B
:200C6E00AF16AB18EC2511F8E43512F9AA13888289838AF0120D7CF51FEC2519F8E4351A4F
:200C8E00F9AC1B888289838CF0120D7CF51E790078017C00C3EC9B5020E8551E24FF92947A
:200CAE00E8551F24FF9295309603E842018802EA2AF8D297C2970C80DB8D828E838FF0E945
:200CCE00020D6122AD82AE83AFF07C00C2947B00C3EB9511501BEB2DF8E43EF98F028882A3
:160CEE0089838AF0120D7CF5F930FBFDACF90B80DFD2948C822214
:0400000002004B327D
:01000B0032C2
:0100130032BA
:01001B0032B2
:0100230032AA
:01002B0032A2
:01003300329A
:01003B003292
:03004300020D04A7
:0300AA000200460B
:03004600020D4662
:200D0400C020C0E0C0F0C082C083C007C006C005C004C003C002C001C000C0D075D0001217
:200D2400063275D008D0D0D000D001D002D003D004D005D006D007D083D082D0F0D0E0D009
:1D0D4400203275A15575A1AA74F855B94405F5B975A1001200FB120BAED2AF80FEB7
:06007A00E478FFF6D8FD5A
:200058007900E94400601B7A00900E1E780075A000E493F2A308B8000205A0D9F4DAF27523
:02007800A0FFE7
:1B0D610020F71130F6138883A88220F509F6A8837583002280FEF280F5F02291
:200080007800E84400600A790075A000E4F309D8FC7800E84400600C7900900000E4F0A380
:0400A000D8FCD9FAB5
:0F004900E473758141120D98E582600302004651
:1C0D7C0020F71430F6148883A88220F507E6A88375830022E280F7E49322E02286
:040D9800758200223E
:00000001FF
